{"abi":[{"type":"constructor","inputs":[{"name":"_usdc","type":"address","internalType":"address"}],"stateMutability":"nonpayable"},{"type":"function","name":"AUTO_RELEASE_PERIOD","inputs":[],"outputs":[{"name":"","type":"uint256","internalType":"uint256"}],"stateMutability":"view"},{"type":"function","name":"BASIS_POINTS","inputs":[],"outputs":[{"name":"","type":"uint256","internalType":"uint256"}],"stateMutability":"view"},{"type":"function","name":"MAX_DISPUTE_PERIOD","inputs":[],"outputs":[{"name":"","type":"uint256","internalType":"uint256"}],"stateMutability":"view"},{"type":"function","name":"MIN_DISPUTE_PERIOD","inputs":[],"outputs":[{"name":"","type":"uint256","internalType":"uint256"}],"stateMutability":"view"},{"type":"function","name":"approveWork","inputs":[{"name":"escrowId","type":"uint256","internalType":"uint256"}],"outputs":[],"stateMutability":"nonpayable"},{"type":"function","name":"autoRelease","inputs":[{"name":"escrowId","type":"uint256","internalType":"uint256"}],"outputs":[],"stateMutability":"nonpayable"},{"type":"function","name":"cancelEscrow","inputs":[{"name":"escrowId","type":"uint256","internalType":"uint256"}],"outputs":[],"stateMutability":"nonpayable"},{"type":"function","name":"claimPayout","inputs":[{"name":"escrowId","type":"uint256","internalType":"uint256"}],"outputs":[],"stateMutability":"nonpayable"},{"type":"function","name":"clientEscrows","inputs":[{"name":"","type":"address","internalType":"address"},{"name":"","type":"uint256","internalType":"uint256"}],"outputs":[{"name":"","type":"uint256","internalType":"uint256"}],"stateMutability":"view"},{"type":"function","name":"collaboratorEscrows","inputs":[{"name":"","type":"address","internalType":"address"},{"name":"","type":"uint256","internalType":"uint256"}],"outputs":[{"name":"","type":"uint256","internalType":"uint256"}],"stateMutability":"view"},{"type":"function","name":"createEscrow","inputs":[{"name":"collaborators","type":"address[]","internalType":"address[]"},{"name":"splits","type":"uint256[]","internalType":"uint256[]"},{"name":"totalAmount","type":"uint256","internalType":"uint256"},{"name":"description","type":"string","internalType":"string"}],"outputs":[{"name":"escrowId","type":"uint256","internalType":"uint256"}],"stateMutability":"nonpayable"},{"type":"function","name":"escrows","inputs":[{"name":"","type":"uint256","internalType":"uint256"}],"outputs":[{"name":"id","type":"uint256","internalType":"uint256"},{"name":"client","type":"address","internalType":"address"},{"name":"arbiter","type":"address","internalType":"address"},{"name":"totalAmount","type":"uint256","internalType":"uint256"},{"name":"createdAt","type":"uint256","internalType":"uint256"},{"name":"submittedAt","type":"uint256","internalType":"uint256"},{"name":"approvedAt","type":"uint256","internalType":"uint256"},{"name":"disputeDeadline","type":"uint256","internalType":"uint256"},{"name":"description","type":"string","internalType":"string"},{"name":"proofURI","type":"string","internalType":"string"},{"name":"status","type":"uint8","internalType":"enum AgentEscrow.EscrowStatus"}],"stateMutability":"view"},{"type":"function","name":"getClientEscrows","inputs":[{"name":"client","type":"address","internalType":"address"}],"outputs":[{"name":"","type":"uint256[]","internalType":"uint256[]"}],"stateMutability":"view"},{"type":"function","name":"getCollaboratorEscrows","inputs":[{"name":"collaborator","type":"address","internalType":"address"}],"outputs":[{"name":"","type":"uint256[]","internalType":"uint256[]"}],"stateMutability":"view"},{"type":"function","name":"getCollaborators","inputs":[{"name":"escrowId","type":"uint256","internalType":"uint256"}],"outputs":[{"name":"wallets","type":"address[]","internalType":"address[]"},{"name":"splits","type":"uint256[]","internalType":"uint256[]"},{"name":"claimed","type":"bool[]","internalType":"bool[]"}],"stateMutability":"view"},{"type":"function","name":"getEscrow","inputs":[{"name":"escrowId","type":"uint256","internalType":"uint256"}],"outputs":[{"name":"id","type":"uint256","internalType":"uint256"},{"name":"client","type":"address","internalType":"address"},{"name":"arbiter","type":"address","internalType":"address"},{"name":"totalAmount","type":"uint256","internalType":"uint256"},{"name":"createdAt","type":"uint256","internalType":"uint256"},{"name":"submittedAt","type":"uint256","internalType":"uint256"},{"name":"approvedAt","type":"uint256","internalType":"uint256"},{"name":"disputeDeadline","type":"uint256","internalType":"uint256"},{"name":"description","type":"string","internalType":"string"},{"name":"proofURI","type":"string","internalType":"string"},{"name":"status","type":"uint8","internalType":"enum AgentEscrow.EscrowStatus"}],"stateMutability":"view"},{"type":"function","name":"getPendingPayout","inputs":[{"name":"escrowId","type":"uint256","internalType":"uint256"},{"name":"collaborator","type":"address","internalType":"address"}],"outputs":[{"name":"","type":"uint256","internalType":"uint256"}],"stateMutability":"view"},{"type":"function","name":"nextEscrowId","inputs":[],"outputs":[{"name":"","type":"uint256","internalType":"uint256"}],"stateMutability":"view"},{"type":"function","name":"raiseDispute","inputs":[{"name":"escrowId","type":"uint256","internalType":"uint256"}],"outputs":[],"stateMutability":"nonpayable"},{"type":"function","name":"resolveDispute","inputs":[{"name":"escrowId","type":"uint256","internalType":"uint256"},{"name":"workAccepted","type":"bool","internalType":"bool"}],"outputs":[],"stateMutability":"nonpayable"},{"type":"function","name":"setArbiter","inputs":[{"name":"escrowId","type":"uint256","internalType":"uint256"},{"name":"arbiter","type":"address","internalType":"address"}],"outputs":[],"stateMutability":"nonpayable"},{"type":"function","name":"submitWork","inputs":[{"name":"escrowId","type":"uint256","internalType":"uint256"},{"name":"proofURI","type":"string","internalType":"string"}],"outputs":[],"stateMutability":"nonpayable"},{"type":"function","name":"usdc","inputs":[],"outputs":[{"name":"","type":"address","internalType":"contract IERC20"}],"stateMutability":"view"},{"type":"event","name":"ArbiterSet","inputs":[{"name":"escrowId","type":"uint256","indexed":true,"internalType":"uint256"},{"name":"arbiter","type":"address","indexed":true,"internalType":"address"}],"anonymous":false},{"type":"event","name":"DisputeRaised","inputs":[{"name":"escrowId","type":"uint256","indexed":true,"internalType":"uint256"},{"name":"raiser","type":"address","indexed":true,"internalType":"address"},{"name":"deadline","type":"uint256","indexed":false,"internalType":"uint256"}],"anonymous":false},{"type":"event","name":"DisputeResolved","inputs":[{"name":"escrowId","type":"uint256","indexed":true,"internalType":"uint256"},{"name":"workAccepted","type":"bool","indexed":false,"internalType":"bool"}],"anonymous":false},{"type":"event","name":"EscrowCancelled","inputs":[{"name":"escrowId","type":"uint256","indexed":true,"internalType":"uint256"},{"name":"refundAmount","type":"uint256","indexed":false,"internalType":"uint256"}],"anonymous":false},{"type":"event","name":"EscrowCreated","inputs":[{"name":"escrowId","type":"uint256","indexed":true,"internalType":"uint256"},{"name":"client","type":"address","indexed":true,"internalType":"address"},{"name":"collaborators","type":"address[]","indexed":false,"internalType":"address[]"},{"name":"splits","type":"uint256[]","indexed":false,"internalType":"uint256[]"},{"name":"totalAmount","type":"uint256","indexed":false,"internalType":"uint256"},{"name":"description","type":"string","indexed":false,"internalType":"string"}],"anonymous":false},{"type":"event","name":"PayoutClaimed","inputs":[{"name":"escrowId","type":"uint256","indexed":true,"internalType":"uint256"},{"name":"collaborator","type":"address","indexed":true,"internalType":"address"},{"name":"amount","type":"uint256","indexed":false,"internalType":"uint256"}],"anonymous":false},{"type":"event","name":"WorkApproved","inputs":[{"name":"escrowId","type":"uint256","indexed":true,"internalType":"uint256"},{"name":"timestamp","type":"uint256","indexed":false,"internalType":"uint256"}],"anonymous":false},{"type":"event","name":"WorkSubmitted","inputs":[{"name":"escrowId","type":"uint256","indexed":true,"internalType":"uint256"},{"name":"proofURI","type":"string","indexed":false,"internalType":"string"},{"name":"timestamp","type":"uint256","indexed":false,"internalType":"uint256"}],"anonymous":false},{"type":"error","name":"AlreadyClaimed","inputs":[]},{"type":"error","name":"AutoReleaseNotReady","inputs":[]},{"type":"error","name":"DisputePeriodActive","inputs":[]},{"type":"error","name":"DisputePeriodExpired","inputs":[]},{"type":"error","name":"InsufficientAllowance","inputs":[]},{"type":"error","name":"InvalidCollaborators","inputs":[]},{"type":"error","name":"InvalidSplits","inputs":[]},{"type":"error","name":"InvalidStatus","inputs":[]},{"type":"error","name":"NoDisputeActive","inputs":[]},{"type":"error","name":"NotArbiter","inputs":[]},{"type":"error","name":"NotClient","inputs":[]},{"type":"error","name":"NotCollaborator","inputs":[]},{"type":"error","name":"ReentrancyGuardReentrantCall","inputs":[]},{"type":"error","name":"SplitsMustSum100","inputs":[]},{"type":"error","name":"TransferFailed","inputs":[]},{"type":"error","name":"ZeroAddress","inputs":[]},{"type":"error","name":"ZeroAmount","inputs":[]}],"bytecode":{"object":"0x60a060405234801562000010575f80fd5b506040516200238538038062002385833981016040819052620000339162000071565b60015f556001600160a01b0381166200005f5760405163d92e233d60e01b815260040160405180910390fd5b6001600160a01b0316608052620000a0565b5f6020828403121562000082575f80fd5b81516001600160a01b038116811462000099575f80fd5b9392505050565b6080516122a9620000dc5f395f81816102020152818161092801528181610d4701528181610df9015281816115670152611a6001526122a95ff3fe608060405234801561000f575f80fd5b5060043610610148575f3560e01c80637ee577a2116100bf578063b5f1c3f411610079578063b5f1c3f4146102eb578063c2f1bf07146102f5578063da8accf914610308578063e01824361461031b578063e1f1c4a71461032e578063ed2339d614610337575f80fd5b80637ee577a21461027f57806389cb29dd146102925780638a69614e1461029b578063a5c1674e146102ae578063ae23c603146102c1578063b195b01c146102e1575f80fd5b80633d01e0fa116101105780633d01e0fa146101ea5780633e413bee146101fd578063459b860e1461023c5780636606440c1461024f5780636cb93d32146102625780637d19e5961461026c575f80fd5b8063012f52ee1461014c578063016517371461017f57806310c2c1c1146101a05780632bd7ed5a146101b557806334b25ee2146101d7575b5f80fd5b61015f61015a366004611b60565b61034a565b6040516101769b9a99989796959493929190611bce565b60405180910390f35b61019261018d366004611c84565b6104bf565b604051908152602001610176565b6101b36101ae366004611cac565b6104ea565b005b6101c86101c3366004611b60565b610608565b60405161017693929190611d10565b6101b36101e5366004611db6565b610808565b6101b36101f8366004611b60565b610a34565b6102247f000000000000000000000000000000000000000000000000000000000000000081565b6040516001600160a01b039091168152602001610176565b6101b361024a366004611b60565b610b18565b61019261025d366004611e6a565b610bd3565b61019262278d0081565b61015f61027a366004611b60565b611099565b61019261028d366004611cac565b611257565b61019260015481565b6101b36102a9366004611b60565b611342565b6101b36102bc366004611b60565b61166c565b6102d46102cf366004611f06565b611777565b6040516101769190611f26565b6101926201518081565b6101926212750081565b6102d4610303366004611f06565b6117e0565b6101b3610316366004611f38565b611847565b6101b3610329366004611b60565b611998565b61019261271081565b610192610345366004611c84565b611b1f565b600260208190525f918252604090912080546001820154928201546003830154600484015460058501546006860154600787015460088801805497996001600160a01b039081169997169795969495939492939192916103a990611f80565b80601f01602080910402602001604051908101604052809291908181526020018280546103d590611f80565b80156104205780601f106103f757610100808354040283529160200191610420565b820191905f5260205f20905b81548152906001019060200180831161040357829003601f168201915b50505050509080600901805461043590611f80565b80601f016020809104026020016040519081016040528092919081815260200182805461046190611f80565b80156104ac5780601f10610483576101008083540402835291602001916104ac565b820191905f5260205f20905b81548152906001019060200180831161048f57829003601f168201915b505050600a909301549192505060ff168b565b6003602052815f5260405f2081815481106104d8575f80fd5b905f5260205f20015f91509150505481565b5f8281526002602052604090206001015482906001600160a01b0316331461052557604051630836f21d60e21b815260040160405180910390fd5b6001600160a01b03821661054c5760405163d92e233d60e01b815260040160405180910390fd5b5f83815260026020526040812090600a82015460ff16600581111561057357610573611bba565b1415801561059a57506001600a82015460ff16600581111561059757610597611bba565b14155b156105b8576040516307a92f1960e51b815260040160405180910390fd5b6002810180546001600160a01b0319166001600160a01b03851690811790915560405185907fc8d8ceeeb85b71e935c56c5b01b3172ac921f56f0174509be0c62f01e84c3905905f90a350505050565b5f818152600260205260409020600b81015460609182918291908067ffffffffffffffff81111561063b5761063b611fb8565b604051908082528060200260200182016040528015610664578160200160208202803683370190505b5094508067ffffffffffffffff81111561068057610680611fb8565b6040519080825280602002602001820160405280156106a9578160200160208202803683370190505b5093508067ffffffffffffffff8111156106c5576106c5611fb8565b6040519080825280602002602001820160405280156106ee578160200160208202803683370190505b5092505f5b818110156107fe5782600b01818154811061071057610710611fcc565b5f91825260209091206003909102015486516001600160a01b039091169087908390811061074057610740611fcc565b60200260200101906001600160a01b031690816001600160a01b03168152505082600b01818154811061077557610775611fcc565b905f5260205f2090600302016001015485828151811061079757610797611fcc565b60200260200101818152505082600b0181815481106107b8576107b8611fcc565b905f5260205f2090600302016002015f9054906101000a900460ff168482815181106107e6576107e6611fcc565b911515602092830291909101909101526001016106f3565b5050509193909250565b5f828152600260208190526040909120015482906001600160a01b031633146108445760405163665b32d360e11b815260040160405180910390fd5b61084c611b38565b5f8381526002602052604090206003600a82015460ff16600581111561087457610874611bba565b146108925760405163577d7e7d60e01b815260040160405180910390fd5b82156108e857600a8101805460ff191660041790554260068201556040516001815284907f5a87909bff68caaaaf0b3fd9c74eeccc928832f879315e5c6fb7a73612f26c0c9060200160405180910390a2610a25565b600a8101805460ff191660051790556001810154600382015460405163a9059cbb60e01b81526001600160a01b03928316600482015260248101919091527f00000000000000000000000000000000000000000000000000000000000000009091169063a9059cbb906044016020604051808303815f875af1158015610970573d5f803e3d5ffd5b505050506040513d601f19601f820116820180604052508101906109949190611fe0565b6109b1576040516312171d8360e31b815260040160405180910390fd5b6040515f815284907f5a87909bff68caaaaf0b3fd9c74eeccc928832f879315e5c6fb7a73612f26c0c9060200160405180910390a2837fdc48a08bb890bd1b8e4261212a97a5e711e80830d96ba56b362f3ac5f427d51e8260030154604051610a1c91815260200190565b60405180910390a25b50610a2f60015f55565b505050565b5f8181526002602052604090206001015481906001600160a01b03163314610a6f57604051630836f21d60e21b815260040160405180910390fd5b610a77611b38565b5f8281526002602052604090206001600a82015460ff166005811115610a9f57610a9f611bba565b14610abd576040516307a92f1960e51b815260040160405180910390fd5b4260068201819055600a8201805460ff1916600217905560405190815283907faf8c00204411d5f080de0913186cb59749c06fed4928e61473415b44facf6d8e906020015b60405180910390a250610b1460015f55565b5050565b5f8181526002602052604090206001600a82015460ff166005811115610b4057610b40611bba565b14610b5e576040516307a92f1960e51b815260040160405180910390fd5b8060070154421015610b8357604051630d6ea62d60e31b815260040160405180910390fd5b600a8101805460ff19166002179055426006820181905560405190815282907faf8c00204411d5f080de0913186cb59749c06fed4928e61473415b44facf6d8e9060200160405180910390a25050565b5f610bdc611b38565b861580610be95750601487115b15610c07576040516308f460af60e21b815260040160405180910390fd5b868514610c27576040516355195b2160e01b815260040160405180910390fd5b835f03610c4757604051631f2a200560e01b815260040160405180910390fd5b5f805b86811015610d07575f8a8a83818110610c6557610c65611fcc565b9050602002016020810190610c7a9190611f06565b6001600160a01b031603610ca15760405163d92e233d60e01b815260040160405180910390fd5b878782818110610cb357610cb3611fcc565b905060200201355f03610cd9576040516355195b2160e01b815260040160405180910390fd5b878782818110610ceb57610ceb611fcc565b9050602002013582610cfd919061200f565b9150600101610c4a565b506127108114610d2a576040516320a463f360e11b815260040160405180910390fd5b604051636eb1769f60e11b815233600482015230602482015285907f00000000000000000000000000000000000000000000000000000000000000006001600160a01b03169063dd62ed3e90604401602060405180830381865afa158015610d94573d5f803e3d5ffd5b505050506040513d601f19601f82011682018060405250810190610db89190612022565b1015610dd7576040516313be252b60e01b815260040160405180910390fd5b6040516323b872dd60e01b8152336004820152306024820152604481018690527f00000000000000000000000000000000000000000000000000000000000000006001600160a01b0316906323b872dd906064016020604051808303815f875af1158015610e47573d5f803e3d5ffd5b505050506040513d601f19601f82011682018060405250810190610e6b9190611fe0565b610e88576040516312171d8360e31b815260040160405180910390fd5b60018054905f610e9783612039565b909155505f8181526002602052604090208181556001810180546001600160a01b031916331790556003810187905542600482015590925060088101610ede85878361209c565b50600a8101805460ff191690555f5b8981101561101a5781600b0160405180606001604052808d8d85818110610f1657610f16611fcc565b9050602002016020810190610f2b9190611f06565b6001600160a01b031681526020018b8b85818110610f4b57610f4b611fcc565b602090810292909201358352505f918101829052835460018082018655948352818320845160039092020180546001600160a01b0319166001600160a01b0390921691909117815590830151938101939093556040909101516002909201805460ff1916921515929092179091556004908c8c84818110610fce57610fce611fcc565b9050602002016020810190610fe39190611f06565b6001600160a01b031681526020808201929092526040015f9081208054600181810183559183529290912090910185905501610eed565b50335f818152600360209081526040808320805460018101825590845291909220018590555184907f26a58fdb20231541a4314350bc11d9b34a7add684b87b287576a753086fdbd559061107b908e908e908e908e908e908e908e9061217e565b60405180910390a3505061108e60015f55565b979650505050505050565b5f805f805f805f806060805f8060025f8e81526020019081526020015f209050805f0154816001015f9054906101000a90046001600160a01b0316826002015f9054906101000a90046001600160a01b03168360030154846004015485600501548660060154876007015488600801896009018a600a015f9054906101000a900460ff1682805461112990611f80565b80601f016020809104026020016040519081016040528092919081815260200182805461115590611f80565b80156111a05780601f10611177576101008083540402835291602001916111a0565b820191905f5260205f20905b81548152906001019060200180831161118357829003601f168201915b505050505092508180546111b390611f80565b80601f01602080910402602001604051908101604052809291908181526020018280546111df90611f80565b801561122a5780601f106112015761010080835404028352916020019161122a565b820191905f5260205f20905b81548152906001019060200180831161120d57829003601f168201915b505050505091509b509b509b509b509b509b509b509b509b509b509b505091939597999b90929496989a50565b5f828152600260205260408120815b600b82015481101561133657836001600160a01b031682600b01828154811061129157611291611fcc565b5f9182526020909120600390910201546001600160a01b03161480156112df575081600b0181815481106112c7576112c7611fcc565b5f91825260209091206002600390920201015460ff16155b1561132e5761271082600b0182815481106112fc576112fc611fcc565b905f5260205f20906003020160010154836003015461131b919061221a565b6113259190612231565b9250505061133c565b600101611266565b505f9150505b92915050565b61134a611b38565b5f8181526002602052604090206001600a82015460ff16600581111561137257611372611bba565b148015611383575080600701544210155b156113d557600a8101805460ff19166002179055426006820181905560405190815282907faf8c00204411d5f080de0913186cb59749c06fed4928e61473415b44facf6d8e9060200160405180910390a25b6002600a82015460ff1660058111156113f0576113f0611bba565b1415801561141757506004600a82015460ff16600581111561141457611414611bba565b14155b15611435576040516307a92f1960e51b815260040160405180910390fd5b5f805b600b83015481101561163f57336001600160a01b031683600b01828154811061146357611463611fcc565b5f9182526020909120600390910201546001600160a01b0316036116375782600b01818154811061149657611496611fcc565b5f91825260209091206002600390920201015460ff16156114ca57604051630c8d9eab60e31b815260040160405180910390fd5b600183600b0182815481106114e1576114e1611fcc565b905f5260205f2090600302016002015f6101000a81548160ff0219169083151502179055505f61271084600b01838154811061151f5761151f611fcc565b905f5260205f20906003020160010154856003015461153e919061221a565b6115489190612231565b60405163a9059cbb60e01b8152336004820152602481018290529091507f00000000000000000000000000000000000000000000000000000000000000006001600160a01b03169063a9059cbb906044016020604051808303815f875af11580156115b5573d5f803e3d5ffd5b505050506040513d601f19601f820116820180604052508101906115d99190611fe0565b6115f6576040516312171d8360e31b815260040160405180910390fd5b604051818152339086907fe97cee5a4c0549d3fdc81e322b718ddf0aeb3418ec87dce4f9a7fb28d117c3129060200160405180910390a3600192505061163f565b600101611438565b508061165e576040516332b4e0c360e21b815260040160405180910390fd5b505061166960015f55565b50565b5f8181526002602052604090206001015481906001600160a01b031633146116a757604051630836f21d60e21b815260040160405180910390fd5b5f8281526002602052604090206001600a82015460ff1660058111156116cf576116cf611bba565b146116ed576040516307a92f1960e51b815260040160405180910390fd5b60028101546001600160a01b03166117185760405163d92e233d60e01b815260040160405180910390fd5b600a8101805460ff1916600317905561173462278d004261200f565b60078201819055604051908152339084907fe0e58e9cc5ed7ef092d3e14cff6136d23ebf75a16cf3c8257ef8804811d8b0f39060200160405180910390a3505050565b6001600160a01b0381165f908152600460209081526040918290208054835181840281018401909452808452606093928301828280156117d457602002820191905f5260205f20905b8154815260200190600101908083116117c0575b50505050509050919050565b6001600160a01b0381165f908152600360209081526040918290208054835181840281018401909452808452606093928301828280156117d457602002820191905f5260205f20908154815260200190600101908083116117c05750505050509050919050565b5f838152600260205260408120849190815b600b8201548110156118b357336001600160a01b031682600b01828154811061188457611884611fcc565b5f9182526020909120600390910201546001600160a01b0316036118ab57600192506118b3565b600101611859565b50816118d2576040516332b4e0c360e21b815260040160405180910390fd5b5f86815260026020526040812090600a82015460ff1660058111156118f9576118f9611bba565b14611917576040516307a92f1960e51b815260040160405180910390fd5b6009810161192686888361209c565b504260058201819055600a8201805460ff1916600117905561194c90621275009061200f565b600782015560405187907fe8a414930bf3120d6073851721fbc51c8df55ac88091f40cd6b967aafa350f7e9061198790899089904290612250565b60405180910390a250505050505050565b5f8181526002602052604090206001015481906001600160a01b031633146119d357604051630836f21d60e21b815260040160405180910390fd5b6119db611b38565b5f82815260026020526040812090600a82015460ff166005811115611a0257611a02611bba565b14611a20576040516307a92f1960e51b815260040160405180910390fd5b600a8101805460ff191660051790556001810154600382015460405163a9059cbb60e01b81526001600160a01b03928316600482015260248101919091527f00000000000000000000000000000000000000000000000000000000000000009091169063a9059cbb906044016020604051808303815f875af1158015611aa8573d5f803e3d5ffd5b505050506040513d601f19601f82011682018060405250810190611acc9190611fe0565b611ae9576040516312171d8360e31b815260040160405180910390fd5b827fdc48a08bb890bd1b8e4261212a97a5e711e80830d96ba56b362f3ac5f427d51e8260030154604051610b0291815260200190565b6004602052815f5260405f2081815481106104d8575f80fd5b60025f5403611b5a57604051633ee5aeb560e01b815260040160405180910390fd5b60025f55565b5f60208284031215611b70575f80fd5b5035919050565b5f81518084525f5b81811015611b9b57602081850181015186830182015201611b7f565b505f602082860101526020601f19601f83011685010191505092915050565b634e487b7160e01b5f52602160045260245ffd5b5f6101608d835260018060a01b03808e166020850152808d166040850152508a60608401528960808401528860a08401528760c08401528660e084015280610100840152611c1e81840187611b77565b9050828103610120840152611c338186611b77565b91505060068310611c5257634e487b7160e01b5f52602160045260245ffd5b826101408301529c9b505050505050505050505050565b80356001600160a01b0381168114611c7f575f80fd5b919050565b5f8060408385031215611c95575f80fd5b611c9e83611c69565b946020939093013593505050565b5f8060408385031215611cbd575f80fd5b82359150611ccd60208401611c69565b90509250929050565b5f815180845260208085019450602084015f5b83811015611d0557815187529582019590820190600101611ce9565b509495945050505050565b606080825284519082018190525f906020906080840190828801845b82811015611d515781516001600160a01b031684529284019290840190600101611d2c565b50505083810382850152611d658187611cd6565b848103604086015285518082528387019250908301905f5b81811015611d9b578351151583529284019291840191600101611d7d565b509098975050505050505050565b8015158114611669575f80fd5b5f8060408385031215611dc7575f80fd5b823591506020830135611dd981611da9565b809150509250929050565b5f8083601f840112611df4575f80fd5b50813567ffffffffffffffff811115611e0b575f80fd5b6020830191508360208260051b8501011115611e25575f80fd5b9250929050565b5f8083601f840112611e3c575f80fd5b50813567ffffffffffffffff811115611e53575f80fd5b602083019150836020828501011115611e25575f80fd5b5f805f805f805f6080888a031215611e80575f80fd5b873567ffffffffffffffff80821115611e97575f80fd5b611ea38b838c01611de4565b909950975060208a0135915080821115611ebb575f80fd5b611ec78b838c01611de4565b909750955060408a0135945060608a0135915080821115611ee6575f80fd5b50611ef38a828b01611e2c565b989b979a50959850939692959293505050565b5f60208284031215611f16575f80fd5b611f1f82611c69565b9392505050565b602081525f611f1f6020830184611cd6565b5f805f60408486031215611f4a575f80fd5b83359250602084013567ffffffffffffffff811115611f67575f80fd5b611f7386828701611e2c565b9497909650939450505050565b600181811c90821680611f9457607f821691505b602082108103611fb257634e487b7160e01b5f52602260045260245ffd5b50919050565b634e487b7160e01b5f52604160045260245ffd5b634e487b7160e01b5f52603260045260245ffd5b5f60208284031215611ff0575f80fd5b8151611f1f81611da9565b634e487b7160e01b5f52601160045260245ffd5b8082018082111561133c5761133c611ffb565b5f60208284031215612032575f80fd5b5051919050565b5f6001820161204a5761204a611ffb565b5060010190565b601f821115610a2f57805f5260205f20601f840160051c810160208510156120765750805b601f840160051c820191505b81811015612095575f8155600101612082565b5050505050565b67ffffffffffffffff8311156120b4576120b4611fb8565b6120c8836120c28354611f80565b83612051565b5f601f8411600181146120f9575f85156120e25750838201355b5f19600387901b1c1916600186901b178355612095565b5f83815260208120601f198716915b828110156121285786850135825560209485019460019092019101612108565b5086821015612144575f1960f88860031b161c19848701351681555b505060018560011b0183555050505050565b81835281816020850137505f828201602090810191909152601f909101601f19169091010190565b608080825281018790525f8860a08301825b8a8110156121be576001600160a01b036121a984611c69565b16825260209283019290910190600101612190565b5083810360208501528781526001600160fb1b038811156121dd575f80fd5b8760051b91508189602083013760408401879052018281036020908101606085015261220c9082018587612156565b9a9950505050505050505050565b808202811582820484141761133c5761133c611ffb565b5f8261224b57634e487b7160e01b5f52601260045260245ffd5b500490565b604081525f612263604083018587612156565b905082602083015294935050505056fea264697066735822122064da840e2c563092837fc1287b7744f41315c9fcf4d9625730cee7427db19f1d64736f6c63430008180033","linkReferences":{}},"methodIdentifiers":{"AUTO_RELEASE_PERIOD()":"b5f1c3f4","BASIS_POINTS()":"e1f1c4a7","MAX_DISPUTE_PERIOD()":"6cb93d32","MIN_DISPUTE_PERIOD()":"b195b01c","approveWork(uint256)":"3d01e0fa","autoRelease(uint256)":"459b860e","cancelEscrow(uint256)":"e0182436","claimPayout(uint256)":"8a69614e","clientEscrows(address,uint256)":"01651737","collaboratorEscrows(address,uint256)":"ed2339d6","createEscrow(address[],uint256[],uint256,string)":"6606440c","escrows(uint256)":"012f52ee","getClientEscrows(address)":"c2f1bf07","getCollaboratorEscrows(address)":"ae23c603","getCollaborators(uint256)":"2bd7ed5a","getEscrow(uint256)":"7d19e596","getPendingPayout(uint256,address)":"7ee577a2","nextEscrowId()":"89cb29dd","raiseDispute(uint256)":"a5c1674e","resolveDispute(uint256,bool)":"34b25ee2","setArbiter(uint256,address)":"10c2c1c1","submitWork(uint256,string)":"da8accf9","usdc()":"3e413bee"},"id":19}